{"abi":[{"type":"constructor","inputs":[],"stateMutability":"nonpayable"},{"type":"function","name":"dokumentHashes","inputs":[{"name":"","type":"bytes32","internalType":"bytes32"}],"outputs":[{"name":"","type":"bytes32","internalType":"bytes32"}],"stateMutability":"view"},{"type":"function","name":"einwendungen","inputs":[{"name":"","type":"bytes32","internalType":"bytes32"}],"outputs":[{"name":"einwendungsId","type":"bytes32","internalType":"bytes32"},{"name":"dossierId","type":"bytes32","internalType":"bytes32"},{"name":"einwender","type":"address","internalType":"address"},{"name":"dokumentHash","type":"bytes32","internalType":"bytes32"},{"name":"eingangsDatum","type":"uint256","internalType":"uint256"},{"name":"fristgerecht","type":"bool","internalType":"bool"},{"name":"bearbeitet","type":"bool","internalType":"bool"}],"stateMutability":"view"},{"type":"function","name":"getAnzahlVerfahren","inputs":[],"outputs":[{"name":"","type":"uint256","internalType":"uint256"}],"stateMutability":"view"},{"type":"function","name":"getRolle","inputs":[{"name":"_account","type":"address","internalType":"address"}],"outputs":[{"name":"","type":"uint8","internalType":"enum WorkflowPFV.Role"}],"stateMutability":"view"},{"type":"function","name":"getVerfahren","inputs":[{"name":"_dossierId","type":"bytes32","internalType":"bytes32"}],"outputs":[{"name":"","type":"tuple","internalType":"struct WorkflowPFV.Verfahren","components":[{"name":"dossierId","type":"bytes32","internalType":"bytes32"},{"name":"status","type":"uint8","internalType":"enum WorkflowPFV.Status"},{"name":"vorhabentraeger","type":"address","internalType":"address"},{"name":"merkleRoot","type":"bytes32","internalType":"bytes32"},{"name":"einreichungsDatum","type":"uint256","internalType":"uint256"},{"name":"auslegungsfrist","type":"uint256","internalType":"uint256"},{"name":"vollstaendigkeitBestaetigt","type":"bool","internalType":"bool"},{"name":"toebBeteiligt","type":"bool","internalType":"bool"},{"name":"anzahlEinwendungen","type":"uint256","internalType":"uint256"},{"name":"offeneEinwendungen","type":"uint256","internalType":"uint256"}]}],"stateMutability":"view"},{"type":"function","name":"rolleZuweisen","inputs":[{"name":"_account","type":"address","internalType":"address"},{"name":"_rolle","type":"uint8","internalType":"enum WorkflowPFV.Role"}],"outputs":[],"stateMutability":"nonpayable"},{"type":"function","name":"rollen","inputs":[{"name":"","type":"address","internalType":"address"}],"outputs":[{"name":"","type":"uint8","internalType":"enum WorkflowPFV.Role"}],"stateMutability":"view"},{"type":"function","name":"verfahren","inputs":[{"name":"","type":"bytes32","internalType":"bytes32"}],"outputs":[{"name":"dossierId","type":"bytes32","internalType":"bytes32"},{"name":"status","type":"uint8","internalType":"enum WorkflowPFV.Status"},{"name":"vorhabentraeger","type":"address","internalType":"address"},{"name":"merkleRoot","type":"bytes32","internalType":"bytes32"},{"name":"einreichungsDatum","type":"uint256","internalType":"uint256"},{"name":"auslegungsfrist","type":"uint256","internalType":"uint256"},{"name":"vollstaendigkeitBestaetigt","type":"bool","internalType":"bool"},{"name":"toebBeteiligt","type":"bool","internalType":"bool"},{"name":"anzahlEinwendungen","type":"uint256","internalType":"uint256"},{"name":"offeneEinwendungen","type":"uint256","internalType":"uint256"}],"stateMutability":"view"},{"type":"function","name":"verfahrenEinreichen","inputs":[{"name":"_dossierId","type":"bytes32","internalType":"bytes32"},{"name":"_merkleRoot","type":"bytes32","internalType":"bytes32"}],"outputs":[],"stateMutability":"nonpayable"},{"type":"function","name":"verfahrenEinwendungen","inputs":[{"name":"","type":"bytes32","internalType":"bytes32"},{"name":"","type":"uint256","internalType":"uint256"}],"outputs":[{"name":"","type":"bytes32","internalType":"bytes32"}],"stateMutability":"view"},{"type":"function","name":"verfahrenListe","inputs":[{"name":"","type":"uint256","internalType":"uint256"}],"outputs":[{"name":"","type":"bytes32","internalType":"bytes32"}],"stateMutability":"view"},{"type":"event","name":"DokumentVerankert","inputs":[{"name":"dossierId","type":"bytes32","indexed":true,"internalType":"bytes32"},{"name":"dokumentId","type":"bytes32","indexed":true,"internalType":"bytes32"},{"name":"hash","type":"bytes32","indexed":false,"internalType":"bytes32"},{"name":"zeitstempel","type":"uint256","indexed":false,"internalType":"uint256"}],"anonymous":false},{"type":"event","name":"EinwendungEingereicht","inputs":[{"name":"dossierId","type":"bytes32","indexed":true,"internalType":"bytes32"},{"name":"einwendungsId","type":"bytes32","indexed":true,"internalType":"bytes32"},{"name":"einwender","type":"address","indexed":false,"internalType":"address"},{"name":"zeitstempel","type":"uint256","indexed":false,"internalType":"uint256"},{"name":"fristgerecht","type":"bool","indexed":false,"internalType":"bool"}],"anonymous":false},{"type":"event","name":"Fortschritt","inputs":[{"name":"dossierId","type":"bytes32","indexed":true,"internalType":"bytes32"},{"name":"von","type":"uint8","indexed":false,"internalType":"enum WorkflowPFV.Status"},{"name":"nach","type":"uint8","indexed":false,"internalType":"enum WorkflowPFV.Status"},{"name":"zeitstempel","type":"uint256","indexed":false,"internalType":"uint256"},{"name":"initiator","type":"address","indexed":false,"internalType":"address"}],"anonymous":false},{"type":"event","name":"RolleZugewiesen","inputs":[{"name":"account","type":"address","indexed":true,"internalType":"address"},{"name":"rolle","type":"uint8","indexed":false,"internalType":"enum WorkflowPFV.Role"},{"name":"zeitstempel","type":"uint256","indexed":false,"internalType":"uint256"}],"anonymous":false}],"bytecode":{"object":"0x608060405234801561000f575f5ffd5b50600460025f3373ffffffffffffffffffffffffffffffffffffffff1673ffffffffffffffffffffffffffffffffffffffff1681526020019081526020015f205f6101000a81548160ff021916908360048111156100705761006f6100cb565b5b02179055503373ffffffffffffffffffffffffffffffffffffffff167fe022b8a8594c2941287c6defb9118911d63f960798a8513cf26aa29a776a2c386004426040516100be929190610156565b60405180910390a261017d565b7f4e487b71000000000000000000000000000000000000000000000000000000005f52602160045260245ffd5b60058110610109576101086100cb565b5b50565b5f819050610119826100f8565b919050565b5f6101288261010c565b9050919050565b6101388161011e565b82525050565b5f819050919050565b6101508161013e565b82525050565b5f6040820190506101695f83018561012f565b6101766020830184610147565b9392505050565b61147b8061018a5f395ff3fe608060405234801561000f575f5ffd5b50600436106100a7575f3560e01c80638da0754a1161006f5780638da0754a1461019857806392c87142146101c8578063a0b91eb6146101e4578063a1ae31f814610200578063a4f463e914610230578063c5c6944214610260576100a7565b80631f405196146100ab578063465d97ae146100db5780634f8a055d146100f957806363a710f4146101325780636662542514610162575b5f5ffd5b6100c560048036038101906100c09190610bef565b610290565b6040516100d29190610c29565b60405180910390f35b6100e36102a5565b6040516100f09190610c5a565b60405180910390f35b610113600480360381019061010e9190610bef565b6102b1565b6040516101299a99989796959493929190610d3f565b60405180910390f35b61014c60048036038101906101479190610e03565b610345565b6040516101599190610e74565b60405180910390f35b61017c60048036038101906101779190610bef565b610362565b60405161018f9796959493929190610e8d565b60405180910390f35b6101b260048036038101906101ad9190610bef565b6103d8565b6040516101bf919061100f565b60405180910390f35b6101e260048036038101906101dd919061104c565b61055b565b005b6101fe60048036038101906101f9919061108a565b610733565b005b61021a600480360381019061021591906110f2565b610aa6565b6040516102279190610c29565b60405180910390f35b61024a6004803603810190610245919061111d565b610ac6565b6040516102579190610c29565b60405180910390f35b61027a60048036038101906102759190610e03565b610af1565b6040516102879190610e74565b60405180910390f35b6005602052805f5260405f205f915090505481565b5f600180549050905090565b5f602052805f5260405f205f91509050805f015490806001015f9054906101000a900460ff16908060010160019054906101000a900473ffffffffffffffffffffffffffffffffffffffff1690806002015490806003015490806004015490806005015f9054906101000a900460ff16908060050160019054906101000a900460ff1690806006015490806007015490508a565b6002602052805f5260405f205f915054906101000a900460ff1681565b6003602052805f5260405f205f91509050805f015490806001015490806002015f9054906101000a900473ffffffffffffffffffffffffffffffffffffffff1690806003015490806004015490806005015f9054906101000a900460ff16908060050160019054906101000a900460ff16905087565b6103e0610b43565b815f5f1b5f5f8381526020019081526020015f205f015403610437576040517f08c379a000000000000000000000000000000000000000000000000000000000815260040161042e906111b5565b60405180910390fd5b5f5f8481526020019081526020015f20604051806101400160405290815f8201548152602001600182015f9054906101000a900460ff1660068111156104805761047f610c73565b5b600681111561049257610491610c73565b5b81526020016001820160019054906101000a900473ffffffffffffffffffffffffffffffffffffffff1673ffffffffffffffffffffffffffffffffffffffff1673ffffffffffffffffffffffffffffffffffffffff168152602001600282015481526020016003820154815260200160048201548152602001600582015f9054906101000a900460ff161515151581526020016005820160019054906101000a900460ff1615151515815260200160068201548152602001600782015481525050915050919050565b60048060048111156105705761056f610c73565b5b60025f3373ffffffffffffffffffffffffffffffffffffffff1673ffffffffffffffffffffffffffffffffffffffff1681526020019081526020015f205f9054906101000a900460ff1660048111156105cc576105cb610c73565b5b1461060c576040517f08c379a00000000000000000000000000000000000000000000000000000000081526004016106039061121d565b60405180910390fd5b5f73ffffffffffffffffffffffffffffffffffffffff168373ffffffffffffffffffffffffffffffffffffffff160361067a576040517f08c379a000000000000000000000000000000000000000000000000000000000815260040161067190611285565b60405180910390fd5b8160025f8573ffffffffffffffffffffffffffffffffffffffff1673ffffffffffffffffffffffffffffffffffffffff1681526020019081526020015f205f6101000a81548160ff021916908360048111156106d9576106d8610c73565b5b02179055508273ffffffffffffffffffffffffffffffffffffffff167fe022b8a8594c2941287c6defb9118911d63f960798a8513cf26aa29a776a2c3883426040516107269291906112a3565b60405180910390a2505050565b600180600481111561074857610747610c73565b5b60025f3373ffffffffffffffffffffffffffffffffffffffff1673ffffffffffffffffffffffffffffffffffffffff1681526020019081526020015f205f9054906101000a900460ff1660048111156107a4576107a3610c73565b5b146107e4576040517f08c379a00000000000000000000000000000000000000000000000000000000081526004016107db9061121d565b60405180910390fd5b5f5f1b8303610828576040517f08c379a000000000000000000000000000000000000000000000000000000000815260040161081f90611314565b60405180910390fd5b5f5f1b5f5f8581526020019081526020015f205f01541461087e576040517f08c379a00000000000000000000000000000000000000000000000000000000081526004016108759061137c565b60405180910390fd5b5f5f1b82036108c2576040517f08c379a00000000000000000000000000000000000000000000000000000000081526004016108b9906113e4565b60405180910390fd5b5f6040518061014001604052808581526020015f60068111156108e8576108e7610c73565b5b81526020013373ffffffffffffffffffffffffffffffffffffffff1681526020018481526020014281526020015f81526020015f151581526020015f151581526020015f81526020015f8152509050805f5f8681526020019081526020015f205f820151815f01556020820151816001015f6101000a81548160ff0219169083600681111561097a57610979610c73565b5b021790555060408201518160010160016101000a81548173ffffffffffffffffffffffffffffffffffffffff021916908373ffffffffffffffffffffffffffffffffffffffff160217905550606082015181600201556080820151816003015560a0820151816004015560c0820151816005015f6101000a81548160ff02191690831515021790555060e08201518160050160016101000a81548160ff02191690831515021790555061010082015181600601556101208201518160070155905050600184908060018154018082558091505060019003905f5260205f20015f9091909190915055837f3c4ffdf429db31adfbe09fc1ae5cb4782619c516cc569e45ad80d3660796c91b5f5f4233604051610a989493929190611402565b60405180910390a250505050565b60018181548110610ab5575f80fd5b905f5260205f20015f915090505481565b6004602052815f5260405f208181548110610adf575f80fd5b905f5260205f20015f91509150505481565b5f60025f8373ffffffffffffffffffffffffffffffffffffffff1673ffffffffffffffffffffffffffffffffffffffff1681526020019081526020015f205f9054906101000a900460ff169050919050565b6040518061014001604052805f81526020015f6006811115610b6857610b67610c73565b5b81526020015f73ffffffffffffffffffffffffffffffffffffffff1681526020015f81526020015f81526020015f81526020015f151581526020015f151581526020015f81526020015f81525090565b5f5ffd5b5f819050919050565b610bce81610bbc565b8114610bd8575f5ffd5b50565b5f81359050610be981610bc5565b92915050565b5f60208284031215610c0457610c03610bb8565b5b5f610c1184828501610bdb565b91505092915050565b610c2381610bbc565b82525050565b5f602082019050610c3c5f830184610c1a565b92915050565b5f819050919050565b610c5481610c42565b82525050565b5f602082019050610c6d5f830184610c4b565b92915050565b7f4e487b71000000000000000000000000000000000000000000000000000000005f52602160045260245ffd5b60078110610cb157610cb0610c73565b5b50565b5f819050610cc182610ca0565b919050565b5f610cd082610cb4565b9050919050565b610ce081610cc6565b82525050565b5f73ffffffffffffffffffffffffffffffffffffffff82169050919050565b5f610d0f82610ce6565b9050919050565b610d1f81610d05565b82525050565b5f8115159050919050565b610d3981610d25565b82525050565b5f61014082019050610d535f83018d610c1a565b610d60602083018c610cd7565b610d6d604083018b610d16565b610d7a606083018a610c1a565b610d876080830189610c4b565b610d9460a0830188610c4b565b610da160c0830187610d30565b610dae60e0830186610d30565b610dbc610100830185610c4b565b610dca610120830184610c4b565b9b9a5050505050505050505050565b610de281610d05565b8114610dec575f5ffd5b50565b5f81359050610dfd81610dd9565b92915050565b5f60208284031215610e1857610e17610bb8565b5b5f610e2584828501610def565b91505092915050565b60058110610e3f57610e3e610c73565b5b50565b5f819050610e4f82610e2e565b919050565b5f610e5e82610e42565b9050919050565b610e6e81610e54565b82525050565b5f602082019050610e875f830184610e65565b92915050565b5f60e082019050610ea05f83018a610c1a565b610ead6020830189610c1a565b610eba6040830188610d16565b610ec76060830187610c1a565b610ed46080830186610c4b565b610ee160a0830185610d30565b610eee60c0830184610d30565b98975050505050505050565b610f0381610bbc565b82525050565b610f1281610cc6565b82525050565b610f2181610d05565b82525050565b610f3081610c42565b82525050565b610f3f81610d25565b82525050565b61014082015f820151610f5a5f850182610efa565b506020820151610f6d6020850182610f09565b506040820151610f806040850182610f18565b506060820151610f936060850182610efa565b506080820151610fa66080850182610f27565b5060a0820151610fb960a0850182610f27565b5060c0820151610fcc60c0850182610f36565b5060e0820151610fdf60e0850182610f36565b50610100820151610ff4610100850182610f27565b50610120820151611009610120850182610f27565b50505050565b5f610140820190506110235f830184610f45565b92915050565b60058110611035575f5ffd5b50565b5f8135905061104681611029565b92915050565b5f5f6040838503121561106257611061610bb8565b5b5f61106f85828601610def565b925050602061108085828601611038565b9150509250929050565b5f5f604083850312156110a05761109f610bb8565b5b5f6110ad85828601610bdb565b92505060206110be85828601610bdb565b9150509250929050565b6110d181610c42565b81146110db575f5ffd5b50565b5f813590506110ec816110c8565b92915050565b5f6020828403121561110757611106610bb8565b5b5f611114848285016110de565b91505092915050565b5f5f6040838503121561113357611132610bb8565b5b5f61114085828601610bdb565b9250506020611151858286016110de565b9150509250929050565b5f82825260208201905092915050565b7f56657266616872656e20657869737469657274206e69636874000000000000005f82015250565b5f61119f60198361115b565b91506111aa8261116b565b602082019050919050565b5f6020820190508181035f8301526111cc81611193565b9050919050565b7f556e7a757265696368656e646520426572656368746967756e670000000000005f82015250565b5f611207601a8361115b565b9150611212826111d3565b602082019050919050565b5f6020820190508181035f830152611234816111fb565b9050919050565b7f556e6775656c74696765204164726573736500000000000000000000000000005f82015250565b5f61126f60128361115b565b915061127a8261123b565b602082019050919050565b5f6020820190508181035f83015261129c81611263565b9050919050565b5f6040820190506112b65f830185610e65565b6112c36020830184610c4b565b9392505050565b7f556e6775656c7469676520446f73736965722d494400000000000000000000005f82015250565b5f6112fe60158361115b565b9150611309826112ca565b602082019050919050565b5f6020820190508181035f83015261132b816112f2565b9050919050565b7f56657266616872656e20657869737469657274206265726569747300000000005f82015250565b5f611366601b8361115b565b915061137182611332565b602082019050919050565b5f6020820190508181035f8301526113938161135a565b9050919050565b7f4d65726b6c652d526f6f74206572666f726465726c69636800000000000000005f82015250565b5f6113ce60188361115b565b91506113d98261139a565b602082019050919050565b5f6020820190508181035f8301526113fb816113c2565b9050919050565b5f6080820190506114155f830187610cd7565b6114226020830186610cd7565b61142f6040830185610c4b565b61143c6060830184610d16565b9594505050505056fea264697066735822122041bb788945541b3ed05629d24705f4f3b802e7f6f842ab878cb069acd322a7c664736f6c634300081e0033","linkReferences":{}},"methodIdentifiers":{"dokumentHashes(bytes32)":"1f405196","einwendungen(bytes32)":"66625425","getAnzahlVerfahren()":"465d97ae","getRolle(address)":"c5c69442","getVerfahren(bytes32)":"8da0754a","rolleZuweisen(address,uint8)":"92c87142","rollen(address)":"63a710f4","verfahren(bytes32)":"4f8a055d","verfahrenEinreichen(bytes32,bytes32)":"a0b91eb6","verfahrenEinwendungen(bytes32,uint256)":"a4f463e9","verfahrenListe(uint256)":"a1ae31f8"},"id":0}